:1000000014C023C022C021C020C01FC069C01DC0B1
:100010001CC01BC01AC038C018C017C016C015C0FD
:1000200014C013C012C048C010C011241FBECFE5B9
:10003000D1E0DEBFCDBF20E0A0E6B0E001C01D9260
:10004000A238B207E1F7F6D29AC4DACFCF92DF92A4
:10005000EF92FF926B017C0120E030E0A90167D4B0
:1000600020E030E040E05FE387FD04C0C701B60157
:100070003BD303C0C701B60136D39AD3CB01FF905F
:10008000EF90DF90CF9008951F920F920FB60F92CE
:1000900011248F939F9380917C0090917D00892BF8
:1000A00021F410927500109274009F918F910F901F
:1000B0000FBE0F901F9018951F920F920FB60F92C0
:1000C00011248F939F9381E090E09093730080932D
:1000D00072009F918F910F900FBE0F901F901895F7
:1000E0001F920F920FB60F9211240F931F932F930D
:1000F0003F934F935F936F937F938F939F93AF93B0
:10010000BF93CF93DF93EF93FF93C0917E00D09185
:100110007F002196D0937F00C0937E0000917C00E9
:1001200010917D000115110529F4109261001092C3
:1001300060001AC0809160009091610001969093D8
:1001400061008093600080916000909161006FE198
:1001500070E0A2D2072E000C880B990B5CD376DFDF
:100160009093630080936200012B29F41092650044
:100170001092640021C0809164009091650018166F
:100180001906D4F480916400909165006FE170E0ED
:1001900083D2072E000C880B990B3DD357DF909329
:1001A00081008093800080916400909165000197A8
:1001B0009093650080936400229791F410927F00E1
:1001C00010927E0081E090E02091660030916700FF
:1001D000232B11F080E090E09093670080936600FD
:1001E000FF91EF91DF91CF91BF91AF919F918F914F
:1001F0007F916F915F914F913F912F911F910F913F
:100200000F900FBE0F901F90189510BE85E083BF12
:1002100012BE82E089BF789408958BB788628BBF45
:1002200080B5876080BD229A8BB788628BBF0895A6
:10023000F4DFEBCF90936B0080936A006AE070E08C
:100240002BD270936F0060936E0090936D0080933B
:100250006C008091660090916700C39A892B11F51C
:1002600080916E0090916F00009711F1813091059F
:1002700011F4C49855C08230910529F4C498C598EA
:10028000C69AC79808958330910501F1843091058D
:1002900019F4C498C59A3FC08530910551F5C498AA
:1002A000C59A3FC080916C0090916D00009711F449
:1002B000C49830C08130910519F4C498C59816C00F
:1002C00082309105D9F28330910519F4C498C5980C
:1002D0001BC08430910529F4C498C59AC698C79864
:1002E000D0CF8530910529F4C498C59AC698C7988F
:1002F00019C08630910519F4C498C59AC1CF8730CA
:10030000910521F4C498C59AC69A0CC0883091050D
:1003100021F4C49AC598C698B4CF099721F4C49A19
:10032000C598C698C79A089580917C0090917D00E9
:100330008230910509F481C028F4009759F00197A3
:10034000E9F108958330910509F4CAC0049709F4CE
:100350001DC10895809174009091750081309105C0
:10036000D9F070F0029751F585E493E09093710015
:10037000809370009093650080936400959A18C0F4
:1003800087E191E0909371008093700090936500F5
:1003900080936400939A0CC02DE432E03093710096
:1003A000209370003093650020936400949A02C0FB
:1003B00081E090E090937D0080937C0080917400B8
:1003C0009091750081309105C9F018F0029721F1E4
:1003D00032C080916000909161004F9744F4909AF0
:1003E000939A809180009091810024DFF2CF82E087
:1003F00090E090937D0080937C001DC08091600010
:1004000090916100CE979CF7909A949A8091800089
:10041000909181000FDFF2CF809160009091610098
:100420008D35910524F7909A959A8091800090914E
:10043000810000DFF1CF9098089580917400909131
:1004400075008130910571F190F0029709F43FC079
:1004500045C080916000909161008D3791056CF4EA
:10046000919A939A8091800090918100E3DE80912F
:100470006000909161004F9764F783E090E0909363
:100480007D0080937C002AC0809160009091610083
:100490008831914094F7919A949A8091800090913C
:1004A0008100C8DE8091600090916100CE9764F772
:1004B000E4CF809160009091610084399140ECF626
:1004C000919A959A8091800090918100B3DE8091FD
:1004D000600090916100CE9764F7CFCF9198089516
:1004E00080917400909175008130910579F190F0C0
:1004F000029709F441C048C080916000909161006A
:100500008B3B910574F4D99A939A809180009091D5
:10051000810090DE80916000909161008C379105A0
:100520005CF784E090E090937D0080937C002CC089
:1005300080916000909161008439914094F7D99A3C
:10054000949A809180009091810074DE8091600087
:1005500090916100873191405CF7E3CF809160001A
:10056000909161008F329240E4F6D99A959A8091E9
:100570008000909181005EDE80916000909161002A
:10058000833991405CF7CDCFD9980895809174005C
:10059000909175008130910569F190F0029709F40E
:1005A0003FC046C0809160009091610088319140C9
:1005B00074F4D89A939A80918000909181003ADEE9
:1005C00080916000909161008A3B91055CF71092E8
:1005D0007D0010927C002CC08091600090916100A1
:1005E0008E349240A4F7D89A949A8091800090918A
:1005F000810020DE809160009091610083399140FC
:100600005CF7E5CF80916000909161008634934063
:10061000F4F6D89A959A80918000909181000ADE34
:1006200080916000909161008E3292405CF7CFCF54
:10063000D898089587B3806F87BB81B38B6381BBE4
:100640008AB383608ABB88B3807F88BB959894986F
:10065000939891989098D898D99886E391E0909340
:10066000650080936400E4DD789488B3807888BB6B
:1006700010927D0010927C0081E090E090937700D2
:100680008093760010927900109278001092750095
:100690001092740049DEFECF97FB072E16F40094EB
:1006A00006D077FD08D00BD007FC05D03EF490951E
:1006B00081959F4F0895709561957F4F0895AA1B6E
:1006C000BB1B51E107C0AA1FBB1FA617B70710F03D
:1006D000A61BB70B881F991F5A95A9F7809590956F
:1006E000BC01CD0108955058BB27AA270ED0E5C004
:1006F000D6D030F0DBD020F031F49F3F11F41EF45F
:10070000CBC00EF4E095E7FBC1C0E92FE7D080F342
:10071000BA17620773078407950718F071F49EF5FE
:10072000FFC00EF4E0950B2EBA2FA02D0B01B901DE
:1007300090010C01CA01A0011124FF27591B99F057
:10074000593F50F4503E68F11A16F040A22F232F63
:10075000342F4427585FF3CF469537952795A795B3
:10076000F0405395C9F77EF41F16BA0B620B730B5A
:10077000840BBAF09150A1F0FF0FBB1F661F771FCB
:10078000881FC2F70EC0BA0F621F731F841F48F480
:10079000879577956795B795F7959E3F08F0B3CF06
:1007A0009395880F08F09927EE0F979587950895F0
:1007B00004D06894B111B5C0089598D088F09F57BF
:1007C00090F0B92F9927B751A0F0D1F0660F771F9D
:1007D000881F991F1AF0BA95C9F712C0B13081F07D
:1007E0009FD0B1E008959CC0672F782F8827B85F0D
:1007F00039F0B93FCCF3869577956795B395D9F7DE
:100800003EF490958095709561957F4F8F4F9F4FE7
:100810000895E89409C097FB3EF4909580957095F3
:1008200061957F4F8F4F9F4F9923A9F0F92F96E93C
:10083000BB279395F695879577956795B795F111B1
:10084000F8CFFAF4BB0F11F460FF1BC06F5F7F4F4E
:100850008F4F9F4F16C0882311F096E911C0772360
:1008600021F09EE8872F762F05C0662371F096E869
:10087000862F70E060E02AF09A95660F771F881F38
:10088000DAF7880F9695879597F9089597F99F67F6
:1008900080E870E060E008959FEF80EC0895002408
:1008A0000A941616170618060906089500240A94D5
:1008B00012161306140605060895092E0394000C5B
:1008C00011F4882352F0BB0F40F4BF2B11F460FFEA
:1008D00004C06F5F7F4F8F4F9F4F089557FD905813
:1008E000440F551F59F05F3F71F04795880F97FBF4
:1008F000991F61F09F3F79F08795089512161306AE
:100900001406551FF2CF4695F1DF08C016161706DC
:100910001806991FF1CF8695710561050894089511
:10092000E894BB2766277727CB0197F9089503D072
:1009300008F48FEF0895990F0008550FAA0BE0E80F
:10094000FEEF16161706E807F907C0F01216130691
:10095000E407F50798F0621B730B840B950B39F4D1
:100960000A2661F0232B242B252B21F408950A2637
:1009700009F4A140A6958FEF811D811D0895F8947B
:02098000FFCFA7
:00000001FF
