:1000000014C02EC04CC02CC02BC02AC05CC028C05D
:1000100027C026C025C024C023C022C021C020C0C4
:100020001FC01EC01DC01CC01BC011241FBECFE5B9
:10003000D1E0DEBFCDBF10E0A0E6B0E0E8E5F3E040
:1000400002C005900D92A437B107D9F720E0A4E7CC
:10005000B0E001C01D92AF37B207E1F79AD07AC184
:10006000CFCF89E088BB089598B381E0892788BB0A
:1000700008958AE088BB089586E088BB089598B308
:1000800084E0892788BB089510BE13BE83B78560BE
:1000900083BF789412BE89B7826089BF08951F928A
:1000A0000F920FB60F9211248F939F9381E090E0EF
:1000B00090937800809377009F918F910F900FBE5F
:1000C0000F901F9018951F920F920FB60F92112448
:1000D0002F933F934F935F936F937F938F939F9350
:1000E000AF93BF93EF93FF9380917400909175004D
:1000F0008130910519F08F30910599F48091760047
:10010000813029F4E0916400F091650009958091B7
:1001100076008430A9F4E0917000F09171000995A7
:100120000FC04E9769F48091790090917A00019602
:1001300090937A0080937900109275001092740069
:100140008091790090917A000A9749F480917D001E
:1001500090917E00019690937E0080937D00809127
:1001600074009091750001969093750080937400CF
:10017000FF91EF91BF91AF919F918F917F916F917F
:100180005F914F913F912F910F900FBE0F901F9055
:1001900018958FE087BB80E88BBF88E085BF18BAD1
:1001A00073DF109276001092780010927700109210
:1001B0007E0010927D0010927A00109279001092C9
:1001C00075001092740010927C0010927B0084E005
:1001D000F82ED2E001E010E0EE24E39493E0D92E73
:1001E000C0917600C23039F130F4CC2359F0C130DF
:1001F00009F449C0F7CFC33009F46AC0C43009F428
:1002000086C0F0CFE0916000F09161000995809187
:10021000770090917800019799F5209162003091D4
:10022000630080917D0090917E008217930744F1D6
:10023000E09276005FC0E0916800F0916900099556
:1002400020916A0030916B008091790090917A0042
:1002500028173907D1F5109275001092740010928A
:100260007E0010927D0010927A00109279008091A9
:100270007B0090917C00009729F1019709F0B0CFA5
:1002800010927600ADCF209166003091670080918A
:10029000790090917A002817390709F0A1CFD093FF
:1002A0007600109275001092740010927E001092E9
:1002B0007D0010927A001092790010927C001092CA
:1002C0007B008ECFD09276008BCFC093760088CF04
:1002D000E0916C00F0916D00099520916E003091D5
:1002E0006F0080917D0090917E008217930754F3F8
:1002F000F0927600109275001092740010927E00B9
:1003000010927D0010927A001092790069CF2091AE
:100310007200309173008091790090917A002817D3
:10032000390709F05DCFD0937600109275001092D6
:10033000740010927E0010927D0010927A0010924C
:100340007900109278001092770010937C0000934F
:080350007B0046CFF894FFCFBB
:1003580031000A0034000300390001003C000A00A3
:040368003F0003004F
:00000001FF
